{
  "_format": "hh-sol-artifact-1",
  "contractName": "SoulBoundToken",
  "sourceName": "contracts/SoulBoundToken.sol",
  "abi": [
    {
      "inputs": [
        {
          "internalType": "address",
          "name": "_signer",
          "type": "address"
        }
      ],
      "stateMutability": "nonpayable",
      "type": "constructor"
    },
    {
      "anonymous": false,
      "inputs": [
        {
          "indexed": true,
          "internalType": "address",
          "name": "account",
          "type": "address"
        },
        {
          "indexed": true,
          "internalType": "address",
          "name": "operator",
          "type": "address"
        },
        {
          "indexed": false,
          "internalType": "bool",
          "name": "approved",
          "type": "bool"
        }
      ],
      "name": "ApprovalForAll",
      "type": "event"
    },
    {
      "anonymous": false,
      "inputs": [
        {
          "indexed": true,
          "internalType": "address",
          "name": "previousOwner",
          "type": "address"
        },
        {
          "indexed": true,
          "internalType": "address",
          "name": "newOwner",
          "type": "address"
        }
      ],
      "name": "OwnershipTransferred",
      "type": "event"
    },
    {
      "anonymous": false,
      "inputs": [
        {
          "indexed": true,
          "internalType": "address",
          "name": "operator",
          "type": "address"
        },
        {
          "indexed": true,
          "internalType": "address",
          "name": "from",
          "type": "address"
        },
        {
          "indexed": true,
          "internalType": "address",
          "name": "to",
          "type": "address"
        },
        {
          "indexed": false,
          "internalType": "uint256[]",
          "name": "ids",
          "type": "uint256[]"
        },
        {
          "indexed": false,
          "internalType": "uint256[]",
          "name": "values",
          "type": "uint256[]"
        }
      ],
      "name": "TransferBatch",
      "type": "event"
    },
    {
      "anonymous": false,
      "inputs": [
        {
          "indexed": true,
          "internalType": "address",
          "name": "operator",
          "type": "address"
        },
        {
          "indexed": true,
          "internalType": "address",
          "name": "from",
          "type": "address"
        },
        {
          "indexed": true,
          "internalType": "address",
          "name": "to",
          "type": "address"
        },
        {
          "indexed": false,
          "internalType": "uint256",
          "name": "id",
          "type": "uint256"
        },
        {
          "indexed": false,
          "internalType": "uint256",
          "name": "value",
          "type": "uint256"
        }
      ],
      "name": "TransferSingle",
      "type": "event"
    },
    {
      "anonymous": false,
      "inputs": [
        {
          "indexed": false,
          "internalType": "string",
          "name": "value",
          "type": "string"
        },
        {
          "indexed": true,
          "internalType": "uint256",
          "name": "id",
          "type": "uint256"
        }
      ],
      "name": "URI",
      "type": "event"
    },
    {
      "inputs": [
        {
          "internalType": "address",
          "name": "account",
          "type": "address"
        },
        {
          "internalType": "uint256",
          "name": "id",
          "type": "uint256"
        }
      ],
      "name": "balanceOf",
      "outputs": [
        {
          "internalType": "uint256",
          "name": "",
          "type": "uint256"
        }
      ],
      "stateMutability": "view",
      "type": "function"
    },
    {
      "inputs": [
        {
          "internalType": "address[]",
          "name": "accounts",
          "type": "address[]"
        },
        {
          "internalType": "uint256[]",
          "name": "ids",
          "type": "uint256[]"
        }
      ],
      "name": "balanceOfBatch",
      "outputs": [
        {
          "internalType": "uint256[]",
          "name": "",
          "type": "uint256[]"
        }
      ],
      "stateMutability": "view",
      "type": "function"
    },
    {
      "inputs": [
        {
          "internalType": "uint256",
          "name": "tokenId",
          "type": "uint256"
        },
        {
          "internalType": "uint256",
          "name": "amount",
          "type": "uint256"
        }
      ],
      "name": "burn",
      "outputs": [],
      "stateMutability": "nonpayable",
      "type": "function"
    },
    {
      "inputs": [
        {
          "internalType": "address",
          "name": "account",
          "type": "address"
        },
        {
          "internalType": "uint256",
          "name": "id",
          "type": "uint256"
        },
        {
          "internalType": "uint256",
          "name": "value",
          "type": "uint256"
        }
      ],
      "name": "burn",
      "outputs": [],
      "stateMutability": "nonpayable",
      "type": "function"
    },
    {
      "inputs": [
        {
          "internalType": "address",
          "name": "account",
          "type": "address"
        },
        {
          "internalType": "uint256[]",
          "name": "ids",
          "type": "uint256[]"
        },
        {
          "internalType": "uint256[]",
          "name": "values",
          "type": "uint256[]"
        }
      ],
      "name": "burnBatch",
      "outputs": [],
      "stateMutability": "nonpayable",
      "type": "function"
    },
    {
      "inputs": [
        {
          "internalType": "address",
          "name": "minter",
          "type": "address"
        },
        {
          "internalType": "uint256",
          "name": "tokenId",
          "type": "uint256"
        }
      ],
      "name": "getLastTimeMinted",
      "outputs": [
        {
          "internalType": "uint256",
          "name": "",
          "type": "uint256"
        }
      ],
      "stateMutability": "view",
      "type": "function"
    },
    {
      "inputs": [
        {
          "internalType": "address",
          "name": "account",
          "type": "address"
        },
        {
          "internalType": "address",
          "name": "operator",
          "type": "address"
        }
      ],
      "name": "isApprovedForAll",
      "outputs": [
        {
          "internalType": "bool",
          "name": "",
          "type": "bool"
        }
      ],
      "stateMutability": "view",
      "type": "function"
    },
    {
      "inputs": [
        {
          "internalType": "bytes",
          "name": "message",
          "type": "bytes"
        },
        {
          "internalType": "bytes32",
          "name": "_hash",
          "type": "bytes32"
        },
        {
          "internalType": "uint8",
          "name": "_v",
          "type": "uint8"
        },
        {
          "internalType": "bytes32",
          "name": "_r",
          "type": "bytes32"
        },
        {
          "internalType": "bytes32",
          "name": "_s",
          "type": "bytes32"
        }
      ],
      "name": "mint",
      "outputs": [],
      "stateMutability": "nonpayable",
      "type": "function"
    },
    {
      "inputs": [],
      "name": "owner",
      "outputs": [
        {
          "internalType": "address",
          "name": "",
          "type": "address"
        }
      ],
      "stateMutability": "view",
      "type": "function"
    },
    {
      "inputs": [],
      "name": "renounceOwnership",
      "outputs": [],
      "stateMutability": "nonpayable",
      "type": "function"
    },
    {
      "inputs": [
        {
          "internalType": "address",
          "name": "from",
          "type": "address"
        },
        {
          "internalType": "address",
          "name": "to",
          "type": "address"
        },
        {
          "internalType": "uint256[]",
          "name": "ids",
          "type": "uint256[]"
        },
        {
          "internalType": "uint256[]",
          "name": "amounts",
          "type": "uint256[]"
        },
        {
          "internalType": "bytes",
          "name": "data",
          "type": "bytes"
        }
      ],
      "name": "safeBatchTransferFrom",
      "outputs": [],
      "stateMutability": "nonpayable",
      "type": "function"
    },
    {
      "inputs": [
        {
          "internalType": "address",
          "name": "from",
          "type": "address"
        },
        {
          "internalType": "address",
          "name": "to",
          "type": "address"
        },
        {
          "internalType": "uint256",
          "name": "id",
          "type": "uint256"
        },
        {
          "internalType": "uint256",
          "name": "amount",
          "type": "uint256"
        },
        {
          "internalType": "bytes",
          "name": "data",
          "type": "bytes"
        }
      ],
      "name": "safeTransferFrom",
      "outputs": [],
      "stateMutability": "nonpayable",
      "type": "function"
    },
    {
      "inputs": [
        {
          "internalType": "address",
          "name": "operator",
          "type": "address"
        },
        {
          "internalType": "bool",
          "name": "approved",
          "type": "bool"
        }
      ],
      "name": "setApprovalForAll",
      "outputs": [],
      "stateMutability": "nonpayable",
      "type": "function"
    },
    {
      "inputs": [
        {
          "internalType": "string",
          "name": "newUri",
          "type": "string"
        }
      ],
      "name": "setURI",
      "outputs": [],
      "stateMutability": "nonpayable",
      "type": "function"
    },
    {
      "inputs": [],
      "name": "signerSystem",
      "outputs": [
        {
          "internalType": "address",
          "name": "",
          "type": "address"
        }
      ],
      "stateMutability": "view",
      "type": "function"
    },
    {
      "inputs": [
        {
          "internalType": "bytes4",
          "name": "interfaceId",
          "type": "bytes4"
        }
      ],
      "name": "supportsInterface",
      "outputs": [
        {
          "internalType": "bool",
          "name": "",
          "type": "bool"
        }
      ],
      "stateMutability": "view",
      "type": "function"
    },
    {
      "inputs": [
        {
          "internalType": "address",
          "name": "newOwner",
          "type": "address"
        }
      ],
      "name": "transferOwnership",
      "outputs": [],
      "stateMutability": "nonpayable",
      "type": "function"
    },
    {
      "inputs": [
        {
          "internalType": "uint256",
          "name": "tokenId",
          "type": "uint256"
        }
      ],
      "name": "uri",
      "outputs": [
        {
          "internalType": "string",
          "name": "",
          "type": "string"
        }
      ],
      "stateMutability": "view",
      "type": "function"
    },
    {
      "inputs": [
        {
          "internalType": "bytes",
          "name": "message",
          "type": "bytes"
        },
        {
          "internalType": "bytes32",
          "name": "_hash",
          "type": "bytes32"
        },
        {
          "internalType": "uint8",
          "name": "_v",
          "type": "uint8"
        },
        {
          "internalType": "bytes32",
          "name": "_r",
          "type": "bytes32"
        },
        {
          "internalType": "bytes32",
          "name": "_s",
          "type": "bytes32"
        }
      ],
      "name": "verify",
      "outputs": [
        {
          "internalType": "bool",
          "name": "result",
          "type": "bool"
        }
      ],
      "stateMutability": "view",
      "type": "function"
    }
  ],
  "bytecode": "0x60806040526040518060600160405280602f815260200162004534602f91396006908051906020019062000035929190620001dd565b503480156200004357600080fd5b5060405162004563380380620045638339818101604052810190620000699190620002f7565b604051806020016040528060008152506200008a81620000f360201b60201c565b50620000ab6200009f6200010f60201b60201c565b6200011760201b60201c565b80600460006101000a81548173ffffffffffffffffffffffffffffffffffffffff021916908373ffffffffffffffffffffffffffffffffffffffff160217905550506200038e565b80600290805190602001906200010b929190620001dd565b5050565b600033905090565b6000600360009054906101000a900473ffffffffffffffffffffffffffffffffffffffff16905081600360006101000a81548173ffffffffffffffffffffffffffffffffffffffff021916908373ffffffffffffffffffffffffffffffffffffffff1602179055508173ffffffffffffffffffffffffffffffffffffffff168173ffffffffffffffffffffffffffffffffffffffff167f8be0079c531659141344cd1fd0a4f28419497f9722a3daafe3b4186f6b6457e060405160405180910390a35050565b828054620001eb9062000358565b90600052602060002090601f0160209004810192826200020f57600085556200025b565b82601f106200022a57805160ff19168380011785556200025b565b828001600101855582156200025b579182015b828111156200025a5782518255916020019190600101906200023d565b5b5090506200026a91906200026e565b5090565b5b80821115620002895760008160009055506001016200026f565b5090565b600080fd5b600073ffffffffffffffffffffffffffffffffffffffff82169050919050565b6000620002bf8262000292565b9050919050565b620002d181620002b2565b8114620002dd57600080fd5b50565b600081519050620002f181620002c6565b92915050565b60006020828403121562000310576200030f6200028d565b5b60006200032084828501620002e0565b91505092915050565b7f4e487b7100000000000000000000000000000000000000000000000000000000600052602260045260246000fd5b600060028204905060018216806200037157607f821691505b6020821081141562000388576200038762000329565b5b50919050565b614196806200039e6000396000f3fe608060405234801561001057600080fd5b50600436106101205760003560e01c80638da5cb5b116100ad578063d905c99a11610071578063d905c99a14610303578063e985e9c514610333578063f242432a14610363578063f2fde38b1461037f578063f5298aca1461039b57610120565b80638da5cb5b1461025f5780639ea496291461027d578063a22cb465146102ad578063b390c0ab146102c9578063cbecc2d0146102e557610120565b80632eb2c2d6116100f45780632eb2c2d6146101d15780634e1273f4146101ed57806358bb72d41461021d5780636b20c45414610239578063715018a61461025557610120565b8062fdd58e1461012557806301ffc9a71461015557806302fe5305146101855780630e89341c146101a1575b600080fd5b61013f600480360381019061013a91906123de565b6103b7565b60405161014c919061242d565b60405180910390f35b61016f600480360381019061016a91906124a0565b610480565b60405161017c91906124e8565b60405180910390f35b61019f600480360381019061019a9190612649565b610562565b005b6101bb60048036038101906101b69190612692565b6105f8565b6040516101c89190612747565b60405180910390f35b6101eb60048036038101906101e691906128d2565b610624565b005b61020760048036038101906102029190612a64565b6106c5565b6040516102149190612b9a565b60405180910390f35b61023760048036038101906102329190612c86565b6107de565b005b610253600480360381019061024e9190612d20565b6108bc565b005b61025d610959565b005b6102676109e1565b6040516102749190612dba565b60405180910390f35b61029760048036038101906102929190612c86565b610a0b565b6040516102a491906124e8565b60405180910390f35b6102c760048036038101906102c29190612e01565b610b3d565b005b6102e360048036038101906102de9190612e41565b610b53565b005b6102ed610bae565b6040516102fa9190612dba565b60405180910390f35b61031d600480360381019061031891906123de565b610bd4565b60405161032a919061242d565b60405180910390f35b61034d60048036038101906103489190612e81565b610c2f565b60405161035a91906124e8565b60405180910390f35b61037d60048036038101906103789190612ec1565b610cc3565b005b61039960048036038101906103949190612f58565b610d64565b005b6103b560048036038101906103b09190612f85565b610e5c565b005b60008073ffffffffffffffffffffffffffffffffffffffff168373ffffffffffffffffffffffffffffffffffffffff161415610428576040517f08c379a000000000000000000000000000000000000000000000000000000000815260040161041f9061304a565b60405180910390fd5b60008083815260200190815260200160002060008473ffffffffffffffffffffffffffffffffffffffff1673ffffffffffffffffffffffffffffffffffffffff16815260200190815260200160002054905092915050565b60007fd9b67a26000000000000000000000000000000000000000000000000000000007bffffffffffffffffffffffffffffffffffffffffffffffffffffffff1916827bffffffffffffffffffffffffffffffffffffffffffffffffffffffff1916148061054b57507f0e89341c000000000000000000000000000000000000000000000000000000007bffffffffffffffffffffffffffffffffffffffffffffffffffffffff1916827bffffffffffffffffffffffffffffffffffffffffffffffffffffffff1916145b8061055b575061055a82610ef9565b5b9050919050565b61056a610f63565b73ffffffffffffffffffffffffffffffffffffffff166105886109e1565b73ffffffffffffffffffffffffffffffffffffffff16146105de576040517f08c379a00000000000000000000000000000000000000000000000000000000081526004016105d5906130b6565b60405180910390fd5b80600690805190602001906105f4929190612293565b5050565b606060068260405160200161060e929190613243565b6040516020818303038152906040529050919050565b61062c610f63565b73ffffffffffffffffffffffffffffffffffffffff168573ffffffffffffffffffffffffffffffffffffffff16148061067257506106718561066c610f63565b610c2f565b5b6106b1576040517f08c379a00000000000000000000000000000000000000000000000000000000081526004016106a8906132e8565b60405180910390fd5b6106be8585858585610f6b565b5050505050565b6060815183511461070b576040517f08c379a00000000000000000000000000000000000000000000000000000000081526004016107029061337a565b60405180910390fd5b6000835167ffffffffffffffff8111156107285761072761251e565b5b6040519080825280602002602001820160405280156107565781602001602082028036833780820191505090505b50905060005b84518110156107d3576107a385828151811061077b5761077a61339a565b5b60200260200101518583815181106107965761079561339a565b5b60200260200101516103b7565b8282815181106107b6576107b561339a565b5b602002602001018181525050806107cc906133f8565b905061075c565b508091505092915050565b6107ec868686868686610a0b565b61082b576040517f08c379a0000000000000000000000000000000000000000000000000000000008152600401610822906134b3565b60405180910390fd5b600080878781019061083d9190613511565b9150915061085d818360016040518060200160405280600081525061127f565b42600560008373ffffffffffffffffffffffffffffffffffffffff1673ffffffffffffffffffffffffffffffffffffffff1681526020019081526020016000206000848152602001908152602001600020819055505050505050505050565b6108c4610f63565b73ffffffffffffffffffffffffffffffffffffffff168373ffffffffffffffffffffffffffffffffffffffff16148061090a575061090983610904610f63565b610c2f565b5b610949576040517f08c379a0000000000000000000000000000000000000000000000000000000008152600401610940906135c3565b60405180910390fd5b610954838383611415565b505050565b610961610f63565b73ffffffffffffffffffffffffffffffffffffffff1661097f6109e1565b73ffffffffffffffffffffffffffffffffffffffff16146109d5576040517f08c379a00000000000000000000000000000000000000000000000000000000081526004016109cc906130b6565b60405180910390fd5b6109df60006116c6565b565b6000600360009054906101000a900473ffffffffffffffffffffffffffffffffffffffff16905090565b60008686604051610a1d929190613613565b60405180910390208514610a66576040517f08c379a0000000000000000000000000000000000000000000000000000000008152600401610a5d9061369e565b60405180910390fd5b600085604051602001610a79919061372b565b60405160208183030381529060405280519060200120905060018186868660405160008152602001604052604051610ab4949392919061376f565b6020604051602081039080840390855afa158015610ad6573d6000803e3d6000fd5b5050506020604051035173ffffffffffffffffffffffffffffffffffffffff16600460009054906101000a900473ffffffffffffffffffffffffffffffffffffffff1673ffffffffffffffffffffffffffffffffffffffff16149150509695505050505050565b610b4f610b48610f63565b838361178c565b5050565b80610b5e33846103b7565b1015610b9f576040517f08c379a0000000000000000000000000000000000000000000000000000000008152600401610b9690613826565b60405180910390fd5b610baa3383836118f9565b5050565b600460009054906101000a900473ffffffffffffffffffffffffffffffffffffffff1681565b6000600560008473ffffffffffffffffffffffffffffffffffffffff1673ffffffffffffffffffffffffffffffffffffffff168152602001908152602001600020600083815260200190815260200160002054905092915050565b6000600160008473ffffffffffffffffffffffffffffffffffffffff1673ffffffffffffffffffffffffffffffffffffffff16815260200190815260200160002060008373ffffffffffffffffffffffffffffffffffffffff1673ffffffffffffffffffffffffffffffffffffffff16815260200190815260200160002060009054906101000a900460ff16905092915050565b610ccb610f63565b73ffffffffffffffffffffffffffffffffffffffff168573ffffffffffffffffffffffffffffffffffffffff161480610d115750610d1085610d0b610f63565b610c2f565b5b610d50576040517f08c379a0000000000000000000000000000000000000000000000000000000008152600401610d47906135c3565b60405180910390fd5b610d5d8585858585611b16565b5050505050565b610d6c610f63565b73ffffffffffffffffffffffffffffffffffffffff16610d8a6109e1565b73ffffffffffffffffffffffffffffffffffffffff1614610de0576040517f08c379a0000000000000000000000000000000000000000000000000000000008152600401610dd7906130b6565b60405180910390fd5b600073ffffffffffffffffffffffffffffffffffffffff168173ffffffffffffffffffffffffffffffffffffffff161415610e50576040517f08c379a0000000000000000000000000000000000000000000000000000000008152600401610e47906138b8565b60405180910390fd5b610e59816116c6565b50565b610e64610f63565b73ffffffffffffffffffffffffffffffffffffffff168373ffffffffffffffffffffffffffffffffffffffff161480610eaa5750610ea983610ea4610f63565b610c2f565b5b610ee9576040517f08c379a0000000000000000000000000000000000000000000000000000000008152600401610ee0906135c3565b60405180910390fd5b610ef48383836118f9565b505050565b60007f01ffc9a7000000000000000000000000000000000000000000000000000000007bffffffffffffffffffffffffffffffffffffffffffffffffffffffff1916827bffffffffffffffffffffffffffffffffffffffffffffffffffffffff1916149050919050565b600033905090565b8151835114610faf576040517f08c379a0000000000000000000000000000000000000000000000000000000008152600401610fa69061394a565b60405180910390fd5b600073ffffffffffffffffffffffffffffffffffffffff168473ffffffffffffffffffffffffffffffffffffffff16141561101f576040517f08c379a0000000000000000000000000000000000000000000000000000000008152600401611016906139dc565b60405180910390fd5b6000611029610f63565b9050611039818787878787611d98565b60005b84518110156111ea57600085828151811061105a5761105961339a565b5b6020026020010151905060008583815181106110795761107861339a565b5b60200260200101519050600080600084815260200190815260200160002060008b73ffffffffffffffffffffffffffffffffffffffff1673ffffffffffffffffffffffffffffffffffffffff1681526020019081526020016000205490508181101561111a576040517f08c379a000000000000000000000000000000000000000000000000000000000815260040161111190613a6e565b60405180910390fd5b81810360008085815260200190815260200160002060008c73ffffffffffffffffffffffffffffffffffffffff1673ffffffffffffffffffffffffffffffffffffffff168152602001908152602001600020819055508160008085815260200190815260200160002060008b73ffffffffffffffffffffffffffffffffffffffff1673ffffffffffffffffffffffffffffffffffffffff16815260200190815260200160002060008282546111cf9190613a8e565b92505081905550505050806111e3906133f8565b905061103c565b508473ffffffffffffffffffffffffffffffffffffffff168673ffffffffffffffffffffffffffffffffffffffff168273ffffffffffffffffffffffffffffffffffffffff167f4a39dc06d4c0dbc64b70af90fd698a233a518aa5d07e595d983b8c0526c8f7fb8787604051611261929190613ae4565b60405180910390a4611277818787878787611e46565b505050505050565b600073ffffffffffffffffffffffffffffffffffffffff168473ffffffffffffffffffffffffffffffffffffffff1614156112ef576040517f08c379a00000000000000000000000000000000000000000000000000000000081526004016112e690613b8d565b60405180910390fd5b60006112f9610f63565b905061131a8160008761130b8861201e565b6113148861201e565b87611d98565b8260008086815260200190815260200160002060008773ffffffffffffffffffffffffffffffffffffffff1673ffffffffffffffffffffffffffffffffffffffff16815260200190815260200160002060008282546113799190613a8e565b925050819055508473ffffffffffffffffffffffffffffffffffffffff16600073ffffffffffffffffffffffffffffffffffffffff168273ffffffffffffffffffffffffffffffffffffffff167fc3d58168c5ae7397731d063d5bbf3d657854427343f4c083240f7aacaa2d0f6287876040516113f7929190613bad565b60405180910390a461140e81600087878787612098565b5050505050565b600073ffffffffffffffffffffffffffffffffffffffff168373ffffffffffffffffffffffffffffffffffffffff161415611485576040517f08c379a000000000000000000000000000000000000000000000000000000000815260040161147c90613c48565b60405180910390fd5b80518251146114c9576040517f08c379a00000000000000000000000000000000000000000000000000000000081526004016114c09061394a565b60405180910390fd5b60006114d3610f63565b90506114f381856000868660405180602001604052806000815250611d98565b60005b83518110156116405760008482815181106115145761151361339a565b5b6020026020010151905060008483815181106115335761153261339a565b5b60200260200101519050600080600084815260200190815260200160002060008973ffffffffffffffffffffffffffffffffffffffff1673ffffffffffffffffffffffffffffffffffffffff168152602001908152602001600020549050818110156115d4576040517f08c379a00000000000000000000000000000000000000000000000000000000081526004016115cb90613cda565b60405180910390fd5b81810360008085815260200190815260200160002060008a73ffffffffffffffffffffffffffffffffffffffff1673ffffffffffffffffffffffffffffffffffffffff168152602001908152602001600020819055505050508080611638906133f8565b9150506114f6565b50600073ffffffffffffffffffffffffffffffffffffffff168473ffffffffffffffffffffffffffffffffffffffff168273ffffffffffffffffffffffffffffffffffffffff167f4a39dc06d4c0dbc64b70af90fd698a233a518aa5d07e595d983b8c0526c8f7fb86866040516116b8929190613ae4565b60405180910390a450505050565b6000600360009054906101000a900473ffffffffffffffffffffffffffffffffffffffff16905081600360006101000a81548173ffffffffffffffffffffffffffffffffffffffff021916908373ffffffffffffffffffffffffffffffffffffffff1602179055508173ffffffffffffffffffffffffffffffffffffffff168173ffffffffffffffffffffffffffffffffffffffff167f8be0079c531659141344cd1fd0a4f28419497f9722a3daafe3b4186f6b6457e060405160405180910390a35050565b8173ffffffffffffffffffffffffffffffffffffffff168373ffffffffffffffffffffffffffffffffffffffff1614156117fb576040517f08c379a00000000000000000000000000000000000000000000000000000000081526004016117f290613d6c565b60405180910390fd5b80600160008573ffffffffffffffffffffffffffffffffffffffff1673ffffffffffffffffffffffffffffffffffffffff16815260200190815260200160002060008473ffffffffffffffffffffffffffffffffffffffff1673ffffffffffffffffffffffffffffffffffffffff16815260200190815260200160002060006101000a81548160ff0219169083151502179055508173ffffffffffffffffffffffffffffffffffffffff168373ffffffffffffffffffffffffffffffffffffffff167f17307eab39ab6107e8899845ad3d59bd9653f200f220920489ca2b5937696c31836040516118ec91906124e8565b60405180910390a3505050565b600073ffffffffffffffffffffffffffffffffffffffff168373ffffffffffffffffffffffffffffffffffffffff161415611969576040517f08c379a000000000000000000000000000000000000000000000000000000000815260040161196090613c48565b60405180910390fd5b6000611973610f63565b90506119a3818560006119858761201e565b61198e8761201e565b60405180602001604052806000815250611d98565b600080600085815260200190815260200160002060008673ffffffffffffffffffffffffffffffffffffffff1673ffffffffffffffffffffffffffffffffffffffff16815260200190815260200160002054905082811015611a3a576040517f08c379a0000000000000000000000000000000000000000000000000000000008152600401611a3190613cda565b60405180910390fd5b82810360008086815260200190815260200160002060008773ffffffffffffffffffffffffffffffffffffffff1673ffffffffffffffffffffffffffffffffffffffff16815260200190815260200160002081905550600073ffffffffffffffffffffffffffffffffffffffff168573ffffffffffffffffffffffffffffffffffffffff168373ffffffffffffffffffffffffffffffffffffffff167fc3d58168c5ae7397731d063d5bbf3d657854427343f4c083240f7aacaa2d0f628787604051611b07929190613bad565b60405180910390a45050505050565b600073ffffffffffffffffffffffffffffffffffffffff168473ffffffffffffffffffffffffffffffffffffffff161415611b86576040517f08c379a0000000000000000000000000000000000000000000000000000000008152600401611b7d906139dc565b60405180910390fd5b6000611b90610f63565b9050611bb0818787611ba18861201e565b611baa8861201e565b87611d98565b600080600086815260200190815260200160002060008873ffffffffffffffffffffffffffffffffffffffff1673ffffffffffffffffffffffffffffffffffffffff16815260200190815260200160002054905083811015611c47576040517f08c379a0000000000000000000000000000000000000000000000000000000008152600401611c3e90613a6e565b60405180910390fd5b83810360008087815260200190815260200160002060008973ffffffffffffffffffffffffffffffffffffffff1673ffffffffffffffffffffffffffffffffffffffff168152602001908152602001600020819055508360008087815260200190815260200160002060008873ffffffffffffffffffffffffffffffffffffffff1673ffffffffffffffffffffffffffffffffffffffff1681526020019081526020016000206000828254611cfc9190613a8e565b925050819055508573ffffffffffffffffffffffffffffffffffffffff168773ffffffffffffffffffffffffffffffffffffffff168373ffffffffffffffffffffffffffffffffffffffff167fc3d58168c5ae7397731d063d5bbf3d657854427343f4c083240f7aacaa2d0f628888604051611d79929190613bad565b60405180910390a4611d8f828888888888612098565b50505050505050565b600073ffffffffffffffffffffffffffffffffffffffff168573ffffffffffffffffffffffffffffffffffffffff161480611dff5750600073ffffffffffffffffffffffffffffffffffffffff168473ffffffffffffffffffffffffffffffffffffffff16145b611e3e576040517f08c379a0000000000000000000000000000000000000000000000000000000008152600401611e3590613dfe565b60405180910390fd5b505050505050565b611e658473ffffffffffffffffffffffffffffffffffffffff16612270565b15612016578373ffffffffffffffffffffffffffffffffffffffff1663bc197c8187878686866040518663ffffffff1660e01b8152600401611eab959493929190613e73565b6020604051808303816000875af1925050508015611ee757506040513d601f19601f82011682018060405250810190611ee49190613ef0565b60015b611f8d57611ef3613f2a565b806308c379a01415611f505750611f08613f4c565b80611f135750611f52565b806040517f08c379a0000000000000000000000000000000000000000000000000000000008152600401611f479190612747565b60405180910390fd5b505b6040517f08c379a0000000000000000000000000000000000000000000000000000000008152600401611f8490614054565b60405180910390fd5b63bc197c8160e01b7bffffffffffffffffffffffffffffffffffffffffffffffffffffffff1916817bffffffffffffffffffffffffffffffffffffffffffffffffffffffff191614612014576040517f08c379a000000000000000000000000000000000000000000000000000000000815260040161200b906140e6565b60405180910390fd5b505b505050505050565b60606000600167ffffffffffffffff81111561203d5761203c61251e565b5b60405190808252806020026020018201604052801561206b5781602001602082028036833780820191505090505b50905082816000815181106120835761208261339a565b5b60200260200101818152505080915050919050565b6120b78473ffffffffffffffffffffffffffffffffffffffff16612270565b15612268578373ffffffffffffffffffffffffffffffffffffffff1663f23a6e6187878686866040518663ffffffff1660e01b81526004016120fd959493929190614106565b6020604051808303816000875af192505050801561213957506040513d601f19601f820116820180604052508101906121369190613ef0565b60015b6121df57612145613f2a565b806308c379a014156121a2575061215a613f4c565b8061216557506121a4565b806040517f08c379a00000000000000000000000000000000000000000000000000000000081526004016121999190612747565b60405180910390fd5b505b6040517f08c379a00000000000000000000000000000000000000000000000000000000081526004016121d690614054565b60405180910390fd5b63f23a6e6160e01b7bffffffffffffffffffffffffffffffffffffffffffffffffffffffff1916817bffffffffffffffffffffffffffffffffffffffffffffffffffffffff191614612266576040517f08c379a000000000000000000000000000000000000000000000000000000000815260040161225d906140e6565b60405180910390fd5b505b505050505050565b6000808273ffffffffffffffffffffffffffffffffffffffff163b119050919050565b82805461229f90613105565b90600052602060002090601f0160209004810192826122c15760008555612308565b82601f106122da57805160ff1916838001178555612308565b82800160010185558215612308579182015b828111156123075782518255916020019190600101906122ec565b5b5090506123159190612319565b5090565b5b8082111561233257600081600090555060010161231a565b5090565b6000604051905090565b600080fd5b600080fd5b600073ffffffffffffffffffffffffffffffffffffffff82169050919050565b60006123758261234a565b9050919050565b6123858161236a565b811461239057600080fd5b50565b6000813590506123a28161237c565b92915050565b6000819050919050565b6123bb816123a8565b81146123c657600080fd5b50565b6000813590506123d8816123b2565b92915050565b600080604083850312156123f5576123f4612340565b5b600061240385828601612393565b9250506020612414858286016123c9565b9150509250929050565b612427816123a8565b82525050565b6000602082019050612442600083018461241e565b92915050565b60007fffffffff0000000000000000000000000000000000000000000000000000000082169050919050565b61247d81612448565b811461248857600080fd5b50565b60008135905061249a81612474565b92915050565b6000602082840312156124b6576124b5612340565b5b60006124c48482850161248b565b91505092915050565b60008115159050919050565b6124e2816124cd565b82525050565b60006020820190506124fd60008301846124d9565b92915050565b600080fd5b600080fd5b6000601f19601f8301169050919050565b7f4e487b7100000000000000000000000000000000000000000000000000000000600052604160045260246000fd5b6125568261250d565b810181811067ffffffffffffffff821117156125755761257461251e565b5b80604052505050565b6000612588612336565b9050612594828261254d565b919050565b600067ffffffffffffffff8211156125b4576125b361251e565b5b6125bd8261250d565b9050602081019050919050565b82818337600083830152505050565b60006125ec6125e784612599565b61257e565b90508281526020810184848401111561260857612607612508565b5b6126138482856125ca565b509392505050565b600082601f8301126126305761262f612503565b5b81356126408482602086016125d9565b91505092915050565b60006020828403121561265f5761265e612340565b5b600082013567ffffffffffffffff81111561267d5761267c612345565b5b6126898482850161261b565b91505092915050565b6000602082840312156126a8576126a7612340565b5b60006126b6848285016123c9565b91505092915050565b600081519050919050565b600082825260208201905092915050565b60005b838110156126f95780820151818401526020810190506126de565b83811115612708576000848401525b50505050565b6000612719826126bf565b61272381856126ca565b93506127338185602086016126db565b61273c8161250d565b840191505092915050565b60006020820190508181036000830152612761818461270e565b905092915050565b600067ffffffffffffffff8211156127845761278361251e565b5b602082029050602081019050919050565b600080fd5b60006127ad6127a884612769565b61257e565b905080838252602082019050602084028301858111156127d0576127cf612795565b5b835b818110156127f957806127e588826123c9565b8452602084019350506020810190506127d2565b5050509392505050565b600082601f83011261281857612817612503565b5b813561282884826020860161279a565b91505092915050565b600067ffffffffffffffff82111561284c5761284b61251e565b5b6128558261250d565b9050602081019050919050565b600061287561287084612831565b61257e565b90508281526020810184848401111561289157612890612508565b5b61289c8482856125ca565b509392505050565b600082601f8301126128b9576128b8612503565b5b81356128c9848260208601612862565b91505092915050565b600080600080600060a086880312156128ee576128ed612340565b5b60006128fc88828901612393565b955050602061290d88828901612393565b945050604086013567ffffffffffffffff81111561292e5761292d612345565b5b61293a88828901612803565b935050606086013567ffffffffffffffff81111561295b5761295a612345565b5b61296788828901612803565b925050608086013567ffffffffffffffff81111561298857612987612345565b5b612994888289016128a4565b9150509295509295909350565b600067ffffffffffffffff8211156129bc576129bb61251e565b5b602082029050602081019050919050565b60006129e06129db846129a1565b61257e565b90508083825260208201905060208402830185811115612a0357612a02612795565b5b835b81811015612a2c5780612a188882612393565b845260208401935050602081019050612a05565b5050509392505050565b600082601f830112612a4b57612a4a612503565b5b8135612a5b8482602086016129cd565b91505092915050565b60008060408385031215612a7b57612a7a612340565b5b600083013567ffffffffffffffff811115612a9957612a98612345565b5b612aa585828601612a36565b925050602083013567ffffffffffffffff811115612ac657612ac5612345565b5b612ad285828601612803565b9150509250929050565b600081519050919050565b600082825260208201905092915050565b6000819050602082019050919050565b612b11816123a8565b82525050565b6000612b238383612b08565b60208301905092915050565b6000602082019050919050565b6000612b4782612adc565b612b518185612ae7565b9350612b5c83612af8565b8060005b83811015612b8d578151612b748882612b17565b9750612b7f83612b2f565b925050600181019050612b60565b5085935050505092915050565b60006020820190508181036000830152612bb48184612b3c565b905092915050565b600080fd5b60008083601f840112612bd757612bd6612503565b5b8235905067ffffffffffffffff811115612bf457612bf3612bbc565b5b602083019150836001820283011115612c1057612c0f612795565b5b9250929050565b6000819050919050565b612c2a81612c17565b8114612c3557600080fd5b50565b600081359050612c4781612c21565b92915050565b600060ff82169050919050565b612c6381612c4d565b8114612c6e57600080fd5b50565b600081359050612c8081612c5a565b92915050565b60008060008060008060a08789031215612ca357612ca2612340565b5b600087013567ffffffffffffffff811115612cc157612cc0612345565b5b612ccd89828a01612bc1565b96509650506020612ce089828a01612c38565b9450506040612cf189828a01612c71565b9350506060612d0289828a01612c38565b9250506080612d1389828a01612c38565b9150509295509295509295565b600080600060608486031215612d3957612d38612340565b5b6000612d4786828701612393565b935050602084013567ffffffffffffffff811115612d6857612d67612345565b5b612d7486828701612803565b925050604084013567ffffffffffffffff811115612d9557612d94612345565b5b612da186828701612803565b9150509250925092565b612db48161236a565b82525050565b6000602082019050612dcf6000830184612dab565b92915050565b612dde816124cd565b8114612de957600080fd5b50565b600081359050612dfb81612dd5565b92915050565b60008060408385031215612e1857612e17612340565b5b6000612e2685828601612393565b9250506020612e3785828601612dec565b9150509250929050565b60008060408385031215612e5857612e57612340565b5b6000612e66858286016123c9565b9250506020612e77858286016123c9565b9150509250929050565b60008060408385031215612e9857612e97612340565b5b6000612ea685828601612393565b9250506020612eb785828601612393565b9150509250929050565b600080600080600060a08688031215612edd57612edc612340565b5b6000612eeb88828901612393565b9550506020612efc88828901612393565b9450506040612f0d888289016123c9565b9350506060612f1e888289016123c9565b925050608086013567ffffffffffffffff811115612f3f57612f3e612345565b5b612f4b888289016128a4565b9150509295509295909350565b600060208284031215612f6e57612f6d612340565b5b6000612f7c84828501612393565b91505092915050565b600080600060608486031215612f9e57612f9d612340565b5b6000612fac86828701612393565b9350506020612fbd868287016123c9565b9250506040612fce868287016123c9565b9150509250925092565b7f455243313135353a2062616c616e636520717565727920666f7220746865207a60008201527f65726f2061646472657373000000000000000000000000000000000000000000602082015250565b6000613034602b836126ca565b915061303f82612fd8565b604082019050919050565b6000602082019050818103600083015261306381613027565b9050919050565b7f4f776e61626c653a2063616c6c6572206973206e6f7420746865206f776e6572600082015250565b60006130a06020836126ca565b91506130ab8261306a565b602082019050919050565b600060208201905081810360008301526130cf81613093565b9050919050565b7f4e487b7100000000000000000000000000000000000000000000000000000000600052602260045260246000fd5b6000600282049050600182168061311d57607f821691505b60208210811415613131576131306130d6565b5b50919050565b600081905092915050565b60008190508160005260206000209050919050565b6000815461316481613105565b61316e8186613137565b94506001821660008114613189576001811461319a576131cd565b60ff198316865281860193506131cd565b6131a385613142565b60005b838110156131c5578154818901526001820191506020810190506131a6565b838801955050505b50505092915050565b6000819050919050565b6131f16131ec826123a8565b6131d6565b82525050565b7f2e6a736f6e000000000000000000000000000000000000000000000000000000600082015250565b600061322d600583613137565b9150613238826131f7565b600582019050919050565b600061324f8285613157565b915061325b82846131e0565b60208201915061326a82613220565b91508190509392505050565b7f455243313135353a207472616e736665722063616c6c6572206973206e6f742060008201527f6f776e6572206e6f7220617070726f7665640000000000000000000000000000602082015250565b60006132d26032836126ca565b91506132dd82613276565b604082019050919050565b60006020820190508181036000830152613301816132c5565b9050919050565b7f455243313135353a206163636f756e747320616e6420696473206c656e67746860008201527f206d69736d617463680000000000000000000000000000000000000000000000602082015250565b60006133646029836126ca565b915061336f82613308565b604082019050919050565b6000602082019050818103600083015261339381613357565b9050919050565b7f4e487b7100000000000000000000000000000000000000000000000000000000600052603260045260246000fd5b7f4e487b7100000000000000000000000000000000000000000000000000000000600052601160045260246000fd5b6000613403826123a8565b91507fffffffffffffffffffffffffffffffffffffffffffffffffffffffffffffffff821415613436576134356133c9565b5b600182019050919050565b7f536f756c426f756e64546f6b656e3a20496e76616c6964207369676e6174757260008201527f6500000000000000000000000000000000000000000000000000000000000000602082015250565b600061349d6021836126ca565b91506134a882613441565b604082019050919050565b600060208201905081810360008301526134cc81613490565b9050919050565b60006134de8261234a565b9050919050565b6134ee816134d3565b81146134f957600080fd5b50565b60008135905061350b816134e5565b92915050565b6000806040838503121561352857613527612340565b5b6000613536858286016123c9565b9250506020613547858286016134fc565b9150509250929050565b7f455243313135353a2063616c6c6572206973206e6f74206f776e6572206e6f7260008201527f20617070726f7665640000000000000000000000000000000000000000000000602082015250565b60006135ad6029836126ca565b91506135b882613551565b604082019050919050565b600060208201905081810360008301526135dc816135a0565b9050919050565b600081905092915050565b60006135fa83856135e3565b93506136078385846125ca565b82840190509392505050565b60006136208284866135ee565b91508190509392505050565b7f536f756c426f756e64546f6b656e3a20696e76616c696420686173682070726f60008201527f7669646564000000000000000000000000000000000000000000000000000000602082015250565b60006136886025836126ca565b91506136938261362c565b604082019050919050565b600060208201905081810360008301526136b78161367b565b9050919050565b7f19457468657265756d205369676e6564204d6573736167653a0a333200000000600082015250565b60006136f4601c83613137565b91506136ff826136be565b601c82019050919050565b6000819050919050565b61372561372082612c17565b61370a565b82525050565b6000613736826136e7565b91506137428284613714565b60208201915081905092915050565b61375a81612c17565b82525050565b61376981612c4d565b82525050565b60006080820190506137846000830187613751565b6137916020830186613760565b61379e6040830185613751565b6137ab6060830184613751565b95945050505050565b7f536f756c426f756e64546f6b656e3a20496e73756666696369656e742062616c60008201527f616e636500000000000000000000000000000000000000000000000000000000602082015250565b60006138106024836126ca565b915061381b826137b4565b604082019050919050565b6000602082019050818103600083015261383f81613803565b9050919050565b7f4f776e61626c653a206e6577206f776e657220697320746865207a65726f206160008201527f6464726573730000000000000000000000000000000000000000000000000000602082015250565b60006138a26026836126ca565b91506138ad82613846565b604082019050919050565b600060208201905081810360008301526138d181613895565b9050919050565b7f455243313135353a2069647320616e6420616d6f756e7473206c656e6774682060008201527f6d69736d61746368000000000000000000000000000000000000000000000000602082015250565b60006139346028836126ca565b915061393f826138d8565b604082019050919050565b6000602082019050818103600083015261396381613927565b9050919050565b7f455243313135353a207472616e7366657220746f20746865207a65726f20616460008201527f6472657373000000000000000000000000000000000000000000000000000000602082015250565b60006139c66025836126ca565b91506139d18261396a565b604082019050919050565b600060208201905081810360008301526139f5816139b9565b9050919050565b7f455243313135353a20696e73756666696369656e742062616c616e636520666f60008201527f72207472616e7366657200000000000000000000000000000000000000000000602082015250565b6000613a58602a836126ca565b9150613a63826139fc565b604082019050919050565b60006020820190508181036000830152613a8781613a4b565b9050919050565b6000613a99826123a8565b9150613aa4836123a8565b9250827fffffffffffffffffffffffffffffffffffffffffffffffffffffffffffffffff03821115613ad957613ad86133c9565b5b828201905092915050565b60006040820190508181036000830152613afe8185612b3c565b90508181036020830152613b128184612b3c565b90509392505050565b7f455243313135353a206d696e7420746f20746865207a65726f2061646472657360008201527f7300000000000000000000000000000000000000000000000000000000000000602082015250565b6000613b776021836126ca565b9150613b8282613b1b565b604082019050919050565b60006020820190508181036000830152613ba681613b6a565b9050919050565b6000604082019050613bc2600083018561241e565b613bcf602083018461241e565b9392505050565b7f455243313135353a206275726e2066726f6d20746865207a65726f206164647260008201527f6573730000000000000000000000000000000000000000000000000000000000602082015250565b6000613c326023836126ca565b9150613c3d82613bd6565b604082019050919050565b60006020820190508181036000830152613c6181613c25565b9050919050565b7f455243313135353a206275726e20616d6f756e7420657863656564732062616c60008201527f616e636500000000000000000000000000000000000000000000000000000000602082015250565b6000613cc46024836126ca565b9150613ccf82613c68565b604082019050919050565b60006020820190508181036000830152613cf381613cb7565b9050919050565b7f455243313135353a2073657474696e6720617070726f76616c2073746174757360008201527f20666f722073656c660000000000000000000000000000000000000000000000602082015250565b6000613d566029836126ca565b9150613d6182613cfa565b604082019050919050565b60006020820190508181036000830152613d8581613d49565b9050919050565b7f536f756c426f756e64546f6b656e3a2043616e6e6f74207472616e736665722060008201527f746f6b656e730000000000000000000000000000000000000000000000000000602082015250565b6000613de86026836126ca565b9150613df382613d8c565b604082019050919050565b60006020820190508181036000830152613e1781613ddb565b9050919050565b600081519050919050565b600082825260208201905092915050565b6000613e4582613e1e565b613e4f8185613e29565b9350613e5f8185602086016126db565b613e688161250d565b840191505092915050565b600060a082019050613e886000830188612dab565b613e956020830187612dab565b8181036040830152613ea78186612b3c565b90508181036060830152613ebb8185612b3c565b90508181036080830152613ecf8184613e3a565b90509695505050505050565b600081519050613eea81612474565b92915050565b600060208284031215613f0657613f05612340565b5b6000613f1484828501613edb565b91505092915050565b60008160e01c9050919050565b600060033d1115613f495760046000803e613f46600051613f1d565b90505b90565b600060443d1015613f5c57613fdf565b613f64612336565b60043d036004823e80513d602482011167ffffffffffffffff82111715613f8c575050613fdf565b808201805167ffffffffffffffff811115613faa5750505050613fdf565b80602083010160043d038501811115613fc7575050505050613fdf565b613fd68260200185018661254d565b82955050505050505b90565b7f455243313135353a207472616e7366657220746f206e6f6e204552433131353560008201527f526563656976657220696d706c656d656e746572000000000000000000000000602082015250565b600061403e6034836126ca565b915061404982613fe2565b604082019050919050565b6000602082019050818103600083015261406d81614031565b9050919050565b7f455243313135353a204552433131353552656365697665722072656a6563746560008201527f6420746f6b656e73000000000000000000000000000000000000000000000000602082015250565b60006140d06028836126ca565b91506140db82614074565b604082019050919050565b600060208201905081810360008301526140ff816140c3565b9050919050565b600060a08201905061411b6000830188612dab565b6141286020830187612dab565b614135604083018661241e565b614142606083018561241e565b81810360808301526141548184613e3a565b9050969550505050505056fea2646970667358221220c5d2588219ac514e82336af42dd48d083761f7f7875853f48e060d5d39dabe4164736f6c634300080b0033516d656f6466656e4633766b4d585344344c57733147587338384671566b334644743561747a676452726d78385a2f",
  "linkReferences": {},
  "deployedLinkReferences": {}
}