{
  "_format": "hh-sol-artifact-1",
  "contractName": "SoulBoundToken",
  "sourceName": "contracts/SoulBoundToken.sol",
  "abi": [
    {
      "inputs": [
        {
          "internalType": "address",
          "name": "_signer",
          "type": "address"
        }
      ],
      "stateMutability": "nonpayable",
      "type": "constructor"
    },
    {
      "anonymous": false,
      "inputs": [
        {
          "indexed": true,
          "internalType": "address",
          "name": "account",
          "type": "address"
        },
        {
          "indexed": true,
          "internalType": "address",
          "name": "operator",
          "type": "address"
        },
        {
          "indexed": false,
          "internalType": "bool",
          "name": "approved",
          "type": "bool"
        }
      ],
      "name": "ApprovalForAll",
      "type": "event"
    },
    {
      "anonymous": false,
      "inputs": [
        {
          "indexed": true,
          "internalType": "address",
          "name": "previousOwner",
          "type": "address"
        },
        {
          "indexed": true,
          "internalType": "address",
          "name": "newOwner",
          "type": "address"
        }
      ],
      "name": "OwnershipTransferred",
      "type": "event"
    },
    {
      "anonymous": false,
      "inputs": [
        {
          "indexed": true,
          "internalType": "address",
          "name": "operator",
          "type": "address"
        },
        {
          "indexed": true,
          "internalType": "address",
          "name": "from",
          "type": "address"
        },
        {
          "indexed": true,
          "internalType": "address",
          "name": "to",
          "type": "address"
        },
        {
          "indexed": false,
          "internalType": "uint256[]",
          "name": "ids",
          "type": "uint256[]"
        },
        {
          "indexed": false,
          "internalType": "uint256[]",
          "name": "values",
          "type": "uint256[]"
        }
      ],
      "name": "TransferBatch",
      "type": "event"
    },
    {
      "anonymous": false,
      "inputs": [
        {
          "indexed": true,
          "internalType": "address",
          "name": "operator",
          "type": "address"
        },
        {
          "indexed": true,
          "internalType": "address",
          "name": "from",
          "type": "address"
        },
        {
          "indexed": true,
          "internalType": "address",
          "name": "to",
          "type": "address"
        },
        {
          "indexed": false,
          "internalType": "uint256",
          "name": "id",
          "type": "uint256"
        },
        {
          "indexed": false,
          "internalType": "uint256",
          "name": "value",
          "type": "uint256"
        }
      ],
      "name": "TransferSingle",
      "type": "event"
    },
    {
      "anonymous": false,
      "inputs": [
        {
          "indexed": false,
          "internalType": "string",
          "name": "value",
          "type": "string"
        },
        {
          "indexed": true,
          "internalType": "uint256",
          "name": "id",
          "type": "uint256"
        }
      ],
      "name": "URI",
      "type": "event"
    },
    {
      "inputs": [],
      "name": "BRONZE",
      "outputs": [
        {
          "internalType": "uint256",
          "name": "",
          "type": "uint256"
        }
      ],
      "stateMutability": "view",
      "type": "function"
    },
    {
      "inputs": [],
      "name": "GOLD",
      "outputs": [
        {
          "internalType": "uint256",
          "name": "",
          "type": "uint256"
        }
      ],
      "stateMutability": "view",
      "type": "function"
    },
    {
      "inputs": [],
      "name": "SILVER",
      "outputs": [
        {
          "internalType": "uint256",
          "name": "",
          "type": "uint256"
        }
      ],
      "stateMutability": "view",
      "type": "function"
    },
    {
      "inputs": [
        {
          "internalType": "address",
          "name": "account",
          "type": "address"
        },
        {
          "internalType": "uint256",
          "name": "id",
          "type": "uint256"
        }
      ],
      "name": "balanceOf",
      "outputs": [
        {
          "internalType": "uint256",
          "name": "",
          "type": "uint256"
        }
      ],
      "stateMutability": "view",
      "type": "function"
    },
    {
      "inputs": [
        {
          "internalType": "address[]",
          "name": "accounts",
          "type": "address[]"
        },
        {
          "internalType": "uint256[]",
          "name": "ids",
          "type": "uint256[]"
        }
      ],
      "name": "balanceOfBatch",
      "outputs": [
        {
          "internalType": "uint256[]",
          "name": "",
          "type": "uint256[]"
        }
      ],
      "stateMutability": "view",
      "type": "function"
    },
    {
      "inputs": [
        {
          "internalType": "address",
          "name": "account",
          "type": "address"
        },
        {
          "internalType": "uint256",
          "name": "id",
          "type": "uint256"
        },
        {
          "internalType": "uint256",
          "name": "value",
          "type": "uint256"
        }
      ],
      "name": "burn",
      "outputs": [],
      "stateMutability": "nonpayable",
      "type": "function"
    },
    {
      "inputs": [
        {
          "internalType": "address",
          "name": "account",
          "type": "address"
        },
        {
          "internalType": "uint256[]",
          "name": "ids",
          "type": "uint256[]"
        },
        {
          "internalType": "uint256[]",
          "name": "values",
          "type": "uint256[]"
        }
      ],
      "name": "burnBatch",
      "outputs": [],
      "stateMutability": "nonpayable",
      "type": "function"
    },
    {
      "inputs": [
        {
          "internalType": "address",
          "name": "account",
          "type": "address"
        },
        {
          "internalType": "address",
          "name": "operator",
          "type": "address"
        }
      ],
      "name": "isApprovedForAll",
      "outputs": [
        {
          "internalType": "bool",
          "name": "",
          "type": "bool"
        }
      ],
      "stateMutability": "view",
      "type": "function"
    },
    {
      "inputs": [
        {
          "internalType": "bytes",
          "name": "message",
          "type": "bytes"
        },
        {
          "internalType": "bytes32",
          "name": "_hash",
          "type": "bytes32"
        },
        {
          "internalType": "uint8",
          "name": "_v",
          "type": "uint8"
        },
        {
          "internalType": "bytes32",
          "name": "_r",
          "type": "bytes32"
        },
        {
          "internalType": "bytes32",
          "name": "_s",
          "type": "bytes32"
        }
      ],
      "name": "mint",
      "outputs": [],
      "stateMutability": "nonpayable",
      "type": "function"
    },
    {
      "inputs": [],
      "name": "owner",
      "outputs": [
        {
          "internalType": "address",
          "name": "",
          "type": "address"
        }
      ],
      "stateMutability": "view",
      "type": "function"
    },
    {
      "inputs": [],
      "name": "renounceOwnership",
      "outputs": [],
      "stateMutability": "nonpayable",
      "type": "function"
    },
    {
      "inputs": [
        {
          "internalType": "address",
          "name": "from",
          "type": "address"
        },
        {
          "internalType": "address",
          "name": "to",
          "type": "address"
        },
        {
          "internalType": "uint256[]",
          "name": "ids",
          "type": "uint256[]"
        },
        {
          "internalType": "uint256[]",
          "name": "amounts",
          "type": "uint256[]"
        },
        {
          "internalType": "bytes",
          "name": "data",
          "type": "bytes"
        }
      ],
      "name": "safeBatchTransferFrom",
      "outputs": [],
      "stateMutability": "nonpayable",
      "type": "function"
    },
    {
      "inputs": [
        {
          "internalType": "address",
          "name": "from",
          "type": "address"
        },
        {
          "internalType": "address",
          "name": "to",
          "type": "address"
        },
        {
          "internalType": "uint256",
          "name": "id",
          "type": "uint256"
        },
        {
          "internalType": "uint256",
          "name": "amount",
          "type": "uint256"
        },
        {
          "internalType": "bytes",
          "name": "data",
          "type": "bytes"
        }
      ],
      "name": "safeTransferFrom",
      "outputs": [],
      "stateMutability": "nonpayable",
      "type": "function"
    },
    {
      "inputs": [
        {
          "internalType": "address",
          "name": "operator",
          "type": "address"
        },
        {
          "internalType": "bool",
          "name": "approved",
          "type": "bool"
        }
      ],
      "name": "setApprovalForAll",
      "outputs": [],
      "stateMutability": "nonpayable",
      "type": "function"
    },
    {
      "inputs": [
        {
          "internalType": "string",
          "name": "newuri",
          "type": "string"
        }
      ],
      "name": "setURI",
      "outputs": [],
      "stateMutability": "nonpayable",
      "type": "function"
    },
    {
      "inputs": [],
      "name": "signerSystem",
      "outputs": [
        {
          "internalType": "address",
          "name": "",
          "type": "address"
        }
      ],
      "stateMutability": "view",
      "type": "function"
    },
    {
      "inputs": [
        {
          "internalType": "bytes4",
          "name": "interfaceId",
          "type": "bytes4"
        }
      ],
      "name": "supportsInterface",
      "outputs": [
        {
          "internalType": "bool",
          "name": "",
          "type": "bool"
        }
      ],
      "stateMutability": "view",
      "type": "function"
    },
    {
      "inputs": [
        {
          "internalType": "address",
          "name": "newOwner",
          "type": "address"
        }
      ],
      "name": "transferOwnership",
      "outputs": [],
      "stateMutability": "nonpayable",
      "type": "function"
    },
    {
      "inputs": [
        {
          "internalType": "uint256",
          "name": "",
          "type": "uint256"
        }
      ],
      "name": "uri",
      "outputs": [
        {
          "internalType": "string",
          "name": "",
          "type": "string"
        }
      ],
      "stateMutability": "view",
      "type": "function"
    },
    {
      "inputs": [
        {
          "internalType": "bytes",
          "name": "message",
          "type": "bytes"
        },
        {
          "internalType": "bytes32",
          "name": "_hash",
          "type": "bytes32"
        },
        {
          "internalType": "uint8",
          "name": "_v",
          "type": "uint8"
        },
        {
          "internalType": "bytes32",
          "name": "_r",
          "type": "bytes32"
        },
        {
          "internalType": "bytes32",
          "name": "_s",
          "type": "bytes32"
        }
      ],
      "name": "verify",
      "outputs": [
        {
          "internalType": "bool",
          "name": "result",
          "type": "bool"
        }
      ],
      "stateMutability": "view",
      "type": "function"
    }
  ],
  "bytecode": "0x60806040523480156200001157600080fd5b506040516200417b3803806200417b8339818101604052810190620000379190620002eb565b6040518060400160405280600981526020017f536f756c426f756e6400000000000000000000000000000000000000000000008152506200007e81620000e760201b60201c565b506200009f620000936200010360201b60201c565b6200010b60201b60201c565b80600460006101000a81548173ffffffffffffffffffffffffffffffffffffffff021916908373ffffffffffffffffffffffffffffffffffffffff1602179055505062000382565b8060029080519060200190620000ff929190620001d1565b5050565b600033905090565b6000600360009054906101000a900473ffffffffffffffffffffffffffffffffffffffff16905081600360006101000a81548173ffffffffffffffffffffffffffffffffffffffff021916908373ffffffffffffffffffffffffffffffffffffffff1602179055508173ffffffffffffffffffffffffffffffffffffffff168173ffffffffffffffffffffffffffffffffffffffff167f8be0079c531659141344cd1fd0a4f28419497f9722a3daafe3b4186f6b6457e060405160405180910390a35050565b828054620001df906200034c565b90600052602060002090601f0160209004810192826200020357600085556200024f565b82601f106200021e57805160ff19168380011785556200024f565b828001600101855582156200024f579182015b828111156200024e57825182559160200191906001019062000231565b5b5090506200025e919062000262565b5090565b5b808211156200027d57600081600090555060010162000263565b5090565b600080fd5b600073ffffffffffffffffffffffffffffffffffffffff82169050919050565b6000620002b38262000286565b9050919050565b620002c581620002a6565b8114620002d157600080fd5b50565b600081519050620002e581620002ba565b92915050565b60006020828403121562000304576200030362000281565b5b60006200031484828501620002d4565b91505092915050565b7f4e487b7100000000000000000000000000000000000000000000000000000000600052602260045260246000fd5b600060028204905060018216806200036557607f821691505b602082108114156200037c576200037b6200031d565b5b50919050565b613de980620003926000396000f3fe608060405234801561001057600080fd5b506004361061012b5760003560e01c80638da5cb5b116100ad578063e3e55f0811610071578063e3e55f081461032e578063e985e9c51461034c578063f242432a1461037c578063f2fde38b14610398578063f5298aca146103b45761012b565b80638da5cb5b146102885780639ea49629146102a6578063a22cb465146102d6578063cbecc2d0146102f2578063e00fd543146103105761012b565b80633e4bee38116100f45780633e4bee38146101f85780634e1273f41461021657806358bb72d4146102465780636b20c45414610262578063715018a61461027e5761012b565b8062fdd58e1461013057806301ffc9a71461016057806302fe5305146101905780630e89341c146101ac5780632eb2c2d6146101dc575b600080fd5b61014a600480360381019061014591906122c9565b6103d0565b6040516101579190612318565b60405180910390f35b61017a6004803603810190610175919061238b565b610499565b60405161018791906123d3565b60405180910390f35b6101aa60048036038101906101a59190612534565b61057b565b005b6101c660048036038101906101c1919061257d565b610603565b6040516101d39190612632565b60405180910390f35b6101f660048036038101906101f191906127bd565b610697565b005b610200610738565b60405161020d9190612318565b60405180910390f35b610230600480360381019061022b919061294f565b61073d565b60405161023d9190612a85565b60405180910390f35b610260600480360381019061025b9190612b71565b610856565b005b61027c60048036038101906102779190612c0b565b6108df565b005b61028661097c565b005b610290610a04565b60405161029d9190612ca5565b60405180910390f35b6102c060048036038101906102bb9190612b71565b610a2e565b6040516102cd91906123d3565b60405180910390f35b6102f060048036038101906102eb9190612cec565b610b60565b005b6102fa610b76565b6040516103079190612ca5565b60405180910390f35b610318610b9c565b6040516103259190612318565b60405180910390f35b610336610ba1565b6040516103439190612318565b60405180910390f35b61036660048036038101906103619190612d2c565b610ba6565b60405161037391906123d3565b60405180910390f35b61039660048036038101906103919190612d6c565b610c3a565b005b6103b260048036038101906103ad9190612e03565b610cdb565b005b6103ce60048036038101906103c99190612e30565b610dd3565b005b60008073ffffffffffffffffffffffffffffffffffffffff168373ffffffffffffffffffffffffffffffffffffffff161415610441576040517f08c379a000000000000000000000000000000000000000000000000000000000815260040161043890612ef5565b60405180910390fd5b60008083815260200190815260200160002060008473ffffffffffffffffffffffffffffffffffffffff1673ffffffffffffffffffffffffffffffffffffffff16815260200190815260200160002054905092915050565b60007fd9b67a26000000000000000000000000000000000000000000000000000000007bffffffffffffffffffffffffffffffffffffffffffffffffffffffff1916827bffffffffffffffffffffffffffffffffffffffffffffffffffffffff1916148061056457507f0e89341c000000000000000000000000000000000000000000000000000000007bffffffffffffffffffffffffffffffffffffffffffffffffffffffff1916827bffffffffffffffffffffffffffffffffffffffffffffffffffffffff1916145b80610574575061057382610e70565b5b9050919050565b610583610eda565b73ffffffffffffffffffffffffffffffffffffffff166105a1610a04565b73ffffffffffffffffffffffffffffffffffffffff16146105f7576040517f08c379a00000000000000000000000000000000000000000000000000000000081526004016105ee90612f61565b60405180910390fd5b61060081610ee2565b50565b60606002805461061290612fb0565b80601f016020809104026020016040519081016040528092919081815260200182805461063e90612fb0565b801561068b5780601f106106605761010080835404028352916020019161068b565b820191906000526020600020905b81548152906001019060200180831161066e57829003601f168201915b50505050509050919050565b61069f610eda565b73ffffffffffffffffffffffffffffffffffffffff168573ffffffffffffffffffffffffffffffffffffffff1614806106e557506106e4856106df610eda565b610ba6565b5b610724576040517f08c379a000000000000000000000000000000000000000000000000000000000815260040161071b90613054565b60405180910390fd5b6107318585858585610efc565b5050505050565b600381565b60608151835114610783576040517f08c379a000000000000000000000000000000000000000000000000000000000815260040161077a906130e6565b60405180910390fd5b6000835167ffffffffffffffff8111156107a05761079f612409565b5b6040519080825280602002602001820160405280156107ce5781602001602082028036833780820191505090505b50905060005b845181101561084b5761081b8582815181106107f3576107f2613106565b5b602002602001015185838151811061080e5761080d613106565b5b60200260200101516103d0565b82828151811061082e5761082d613106565b5b6020026020010181815250508061084490613164565b90506107d4565b508091505092915050565b610864868686868686610a2e565b6108a3576040517f08c379a000000000000000000000000000000000000000000000000000000000815260040161089a9061321f565b60405180910390fd5b60008087878101906108b5919061327d565b915091506108d58183600160405180602001604052806000815250611210565b5050505050505050565b6108e7610eda565b73ffffffffffffffffffffffffffffffffffffffff168373ffffffffffffffffffffffffffffffffffffffff16148061092d575061092c83610927610eda565b610ba6565b5b61096c576040517f08c379a00000000000000000000000000000000000000000000000000000000081526004016109639061332f565b60405180910390fd5b6109778383836113a6565b505050565b610984610eda565b73ffffffffffffffffffffffffffffffffffffffff166109a2610a04565b73ffffffffffffffffffffffffffffffffffffffff16146109f8576040517f08c379a00000000000000000000000000000000000000000000000000000000081526004016109ef90612f61565b60405180910390fd5b610a026000611657565b565b6000600360009054906101000a900473ffffffffffffffffffffffffffffffffffffffff16905090565b60008686604051610a4092919061337f565b60405180910390208514610a89576040517f08c379a0000000000000000000000000000000000000000000000000000000008152600401610a809061340a565b60405180910390fd5b600085604051602001610a9c91906134a2565b60405160208183030381529060405280519060200120905060018186868660405160008152602001604052604051610ad794939291906134e6565b6020604051602081039080840390855afa158015610af9573d6000803e3d6000fd5b5050506020604051035173ffffffffffffffffffffffffffffffffffffffff16600460009054906101000a900473ffffffffffffffffffffffffffffffffffffffff1673ffffffffffffffffffffffffffffffffffffffff16149150509695505050505050565b610b72610b6b610eda565b838361171d565b5050565b600460009054906101000a900473ffffffffffffffffffffffffffffffffffffffff1681565b600181565b600281565b6000600160008473ffffffffffffffffffffffffffffffffffffffff1673ffffffffffffffffffffffffffffffffffffffff16815260200190815260200160002060008373ffffffffffffffffffffffffffffffffffffffff1673ffffffffffffffffffffffffffffffffffffffff16815260200190815260200160002060009054906101000a900460ff16905092915050565b610c42610eda565b73ffffffffffffffffffffffffffffffffffffffff168573ffffffffffffffffffffffffffffffffffffffff161480610c885750610c8785610c82610eda565b610ba6565b5b610cc7576040517f08c379a0000000000000000000000000000000000000000000000000000000008152600401610cbe9061332f565b60405180910390fd5b610cd4858585858561188a565b5050505050565b610ce3610eda565b73ffffffffffffffffffffffffffffffffffffffff16610d01610a04565b73ffffffffffffffffffffffffffffffffffffffff1614610d57576040517f08c379a0000000000000000000000000000000000000000000000000000000008152600401610d4e90612f61565b60405180910390fd5b600073ffffffffffffffffffffffffffffffffffffffff168173ffffffffffffffffffffffffffffffffffffffff161415610dc7576040517f08c379a0000000000000000000000000000000000000000000000000000000008152600401610dbe9061359d565b60405180910390fd5b610dd081611657565b50565b610ddb610eda565b73ffffffffffffffffffffffffffffffffffffffff168373ffffffffffffffffffffffffffffffffffffffff161480610e215750610e2083610e1b610eda565b610ba6565b5b610e60576040517f08c379a0000000000000000000000000000000000000000000000000000000008152600401610e579061332f565b60405180910390fd5b610e6b838383611b0c565b505050565b60007f01ffc9a7000000000000000000000000000000000000000000000000000000007bffffffffffffffffffffffffffffffffffffffffffffffffffffffff1916827bffffffffffffffffffffffffffffffffffffffffffffffffffffffff1916149050919050565b600033905090565b8060029080519060200190610ef892919061217e565b5050565b8151835114610f40576040517f08c379a0000000000000000000000000000000000000000000000000000000008152600401610f379061362f565b60405180910390fd5b600073ffffffffffffffffffffffffffffffffffffffff168473ffffffffffffffffffffffffffffffffffffffff161415610fb0576040517f08c379a0000000000000000000000000000000000000000000000000000000008152600401610fa7906136c1565b60405180910390fd5b6000610fba610eda565b9050610fca818787878787611d29565b60005b845181101561117b576000858281518110610feb57610fea613106565b5b60200260200101519050600085838151811061100a57611009613106565b5b60200260200101519050600080600084815260200190815260200160002060008b73ffffffffffffffffffffffffffffffffffffffff1673ffffffffffffffffffffffffffffffffffffffff168152602001908152602001600020549050818110156110ab576040517f08c379a00000000000000000000000000000000000000000000000000000000081526004016110a290613753565b60405180910390fd5b81810360008085815260200190815260200160002060008c73ffffffffffffffffffffffffffffffffffffffff1673ffffffffffffffffffffffffffffffffffffffff168152602001908152602001600020819055508160008085815260200190815260200160002060008b73ffffffffffffffffffffffffffffffffffffffff1673ffffffffffffffffffffffffffffffffffffffff16815260200190815260200160002060008282546111609190613773565b925050819055505050508061117490613164565b9050610fcd565b508473ffffffffffffffffffffffffffffffffffffffff168673ffffffffffffffffffffffffffffffffffffffff168273ffffffffffffffffffffffffffffffffffffffff167f4a39dc06d4c0dbc64b70af90fd698a233a518aa5d07e595d983b8c0526c8f7fb87876040516111f29291906137c9565b60405180910390a4611208818787878787611d31565b505050505050565b600073ffffffffffffffffffffffffffffffffffffffff168473ffffffffffffffffffffffffffffffffffffffff161415611280576040517f08c379a000000000000000000000000000000000000000000000000000000000815260040161127790613872565b60405180910390fd5b600061128a610eda565b90506112ab8160008761129c88611f09565b6112a588611f09565b87611d29565b8260008086815260200190815260200160002060008773ffffffffffffffffffffffffffffffffffffffff1673ffffffffffffffffffffffffffffffffffffffff168152602001908152602001600020600082825461130a9190613773565b925050819055508473ffffffffffffffffffffffffffffffffffffffff16600073ffffffffffffffffffffffffffffffffffffffff168273ffffffffffffffffffffffffffffffffffffffff167fc3d58168c5ae7397731d063d5bbf3d657854427343f4c083240f7aacaa2d0f628787604051611388929190613892565b60405180910390a461139f81600087878787611f83565b5050505050565b600073ffffffffffffffffffffffffffffffffffffffff168373ffffffffffffffffffffffffffffffffffffffff161415611416576040517f08c379a000000000000000000000000000000000000000000000000000000000815260040161140d9061392d565b60405180910390fd5b805182511461145a576040517f08c379a00000000000000000000000000000000000000000000000000000000081526004016114519061362f565b60405180910390fd5b6000611464610eda565b905061148481856000868660405180602001604052806000815250611d29565b60005b83518110156115d15760008482815181106114a5576114a4613106565b5b6020026020010151905060008483815181106114c4576114c3613106565b5b60200260200101519050600080600084815260200190815260200160002060008973ffffffffffffffffffffffffffffffffffffffff1673ffffffffffffffffffffffffffffffffffffffff16815260200190815260200160002054905081811015611565576040517f08c379a000000000000000000000000000000000000000000000000000000000815260040161155c906139bf565b60405180910390fd5b81810360008085815260200190815260200160002060008a73ffffffffffffffffffffffffffffffffffffffff1673ffffffffffffffffffffffffffffffffffffffff1681526020019081526020016000208190555050505080806115c990613164565b915050611487565b50600073ffffffffffffffffffffffffffffffffffffffff168473ffffffffffffffffffffffffffffffffffffffff168273ffffffffffffffffffffffffffffffffffffffff167f4a39dc06d4c0dbc64b70af90fd698a233a518aa5d07e595d983b8c0526c8f7fb86866040516116499291906137c9565b60405180910390a450505050565b6000600360009054906101000a900473ffffffffffffffffffffffffffffffffffffffff16905081600360006101000a81548173ffffffffffffffffffffffffffffffffffffffff021916908373ffffffffffffffffffffffffffffffffffffffff1602179055508173ffffffffffffffffffffffffffffffffffffffff168173ffffffffffffffffffffffffffffffffffffffff167f8be0079c531659141344cd1fd0a4f28419497f9722a3daafe3b4186f6b6457e060405160405180910390a35050565b8173ffffffffffffffffffffffffffffffffffffffff168373ffffffffffffffffffffffffffffffffffffffff16141561178c576040517f08c379a000000000000000000000000000000000000000000000000000000000815260040161178390613a51565b60405180910390fd5b80600160008573ffffffffffffffffffffffffffffffffffffffff1673ffffffffffffffffffffffffffffffffffffffff16815260200190815260200160002060008473ffffffffffffffffffffffffffffffffffffffff1673ffffffffffffffffffffffffffffffffffffffff16815260200190815260200160002060006101000a81548160ff0219169083151502179055508173ffffffffffffffffffffffffffffffffffffffff168373ffffffffffffffffffffffffffffffffffffffff167f17307eab39ab6107e8899845ad3d59bd9653f200f220920489ca2b5937696c318360405161187d91906123d3565b60405180910390a3505050565b600073ffffffffffffffffffffffffffffffffffffffff168473ffffffffffffffffffffffffffffffffffffffff1614156118fa576040517f08c379a00000000000000000000000000000000000000000000000000000000081526004016118f1906136c1565b60405180910390fd5b6000611904610eda565b905061192481878761191588611f09565b61191e88611f09565b87611d29565b600080600086815260200190815260200160002060008873ffffffffffffffffffffffffffffffffffffffff1673ffffffffffffffffffffffffffffffffffffffff168152602001908152602001600020549050838110156119bb576040517f08c379a00000000000000000000000000000000000000000000000000000000081526004016119b290613753565b60405180910390fd5b83810360008087815260200190815260200160002060008973ffffffffffffffffffffffffffffffffffffffff1673ffffffffffffffffffffffffffffffffffffffff168152602001908152602001600020819055508360008087815260200190815260200160002060008873ffffffffffffffffffffffffffffffffffffffff1673ffffffffffffffffffffffffffffffffffffffff1681526020019081526020016000206000828254611a709190613773565b925050819055508573ffffffffffffffffffffffffffffffffffffffff168773ffffffffffffffffffffffffffffffffffffffff168373ffffffffffffffffffffffffffffffffffffffff167fc3d58168c5ae7397731d063d5bbf3d657854427343f4c083240f7aacaa2d0f628888604051611aed929190613892565b60405180910390a4611b03828888888888611f83565b50505050505050565b600073ffffffffffffffffffffffffffffffffffffffff168373ffffffffffffffffffffffffffffffffffffffff161415611b7c576040517f08c379a0000000000000000000000000000000000000000000000000000000008152600401611b739061392d565b60405180910390fd5b6000611b86610eda565b9050611bb681856000611b9887611f09565b611ba187611f09565b60405180602001604052806000815250611d29565b600080600085815260200190815260200160002060008673ffffffffffffffffffffffffffffffffffffffff1673ffffffffffffffffffffffffffffffffffffffff16815260200190815260200160002054905082811015611c4d576040517f08c379a0000000000000000000000000000000000000000000000000000000008152600401611c44906139bf565b60405180910390fd5b82810360008086815260200190815260200160002060008773ffffffffffffffffffffffffffffffffffffffff1673ffffffffffffffffffffffffffffffffffffffff16815260200190815260200160002081905550600073ffffffffffffffffffffffffffffffffffffffff168573ffffffffffffffffffffffffffffffffffffffff168373ffffffffffffffffffffffffffffffffffffffff167fc3d58168c5ae7397731d063d5bbf3d657854427343f4c083240f7aacaa2d0f628787604051611d1a929190613892565b60405180910390a45050505050565b505050505050565b611d508473ffffffffffffffffffffffffffffffffffffffff1661215b565b15611f01578373ffffffffffffffffffffffffffffffffffffffff1663bc197c8187878686866040518663ffffffff1660e01b8152600401611d96959493929190613ac6565b6020604051808303816000875af1925050508015611dd257506040513d601f19601f82011682018060405250810190611dcf9190613b43565b60015b611e7857611dde613b7d565b806308c379a01415611e3b5750611df3613b9f565b80611dfe5750611e3d565b806040517f08c379a0000000000000000000000000000000000000000000000000000000008152600401611e329190612632565b60405180910390fd5b505b6040517f08c379a0000000000000000000000000000000000000000000000000000000008152600401611e6f90613ca7565b60405180910390fd5b63bc197c8160e01b7bffffffffffffffffffffffffffffffffffffffffffffffffffffffff1916817bffffffffffffffffffffffffffffffffffffffffffffffffffffffff191614611eff576040517f08c379a0000000000000000000000000000000000000000000000000000000008152600401611ef690613d39565b60405180910390fd5b505b505050505050565b60606000600167ffffffffffffffff811115611f2857611f27612409565b5b604051908082528060200260200182016040528015611f565781602001602082028036833780820191505090505b5090508281600081518110611f6e57611f6d613106565b5b60200260200101818152505080915050919050565b611fa28473ffffffffffffffffffffffffffffffffffffffff1661215b565b15612153578373ffffffffffffffffffffffffffffffffffffffff1663f23a6e6187878686866040518663ffffffff1660e01b8152600401611fe8959493929190613d59565b6020604051808303816000875af192505050801561202457506040513d601f19601f820116820180604052508101906120219190613b43565b60015b6120ca57612030613b7d565b806308c379a0141561208d5750612045613b9f565b80612050575061208f565b806040517f08c379a00000000000000000000000000000000000000000000000000000000081526004016120849190612632565b60405180910390fd5b505b6040517f08c379a00000000000000000000000000000000000000000000000000000000081526004016120c190613ca7565b60405180910390fd5b63f23a6e6160e01b7bffffffffffffffffffffffffffffffffffffffffffffffffffffffff1916817bffffffffffffffffffffffffffffffffffffffffffffffffffffffff191614612151576040517f08c379a000000000000000000000000000000000000000000000000000000000815260040161214890613d39565b60405180910390fd5b505b505050505050565b6000808273ffffffffffffffffffffffffffffffffffffffff163b119050919050565b82805461218a90612fb0565b90600052602060002090601f0160209004810192826121ac57600085556121f3565b82601f106121c557805160ff19168380011785556121f3565b828001600101855582156121f3579182015b828111156121f25782518255916020019190600101906121d7565b5b5090506122009190612204565b5090565b5b8082111561221d576000816000905550600101612205565b5090565b6000604051905090565b600080fd5b600080fd5b600073ffffffffffffffffffffffffffffffffffffffff82169050919050565b600061226082612235565b9050919050565b61227081612255565b811461227b57600080fd5b50565b60008135905061228d81612267565b92915050565b6000819050919050565b6122a681612293565b81146122b157600080fd5b50565b6000813590506122c38161229d565b92915050565b600080604083850312156122e0576122df61222b565b5b60006122ee8582860161227e565b92505060206122ff858286016122b4565b9150509250929050565b61231281612293565b82525050565b600060208201905061232d6000830184612309565b92915050565b60007fffffffff0000000000000000000000000000000000000000000000000000000082169050919050565b61236881612333565b811461237357600080fd5b50565b6000813590506123858161235f565b92915050565b6000602082840312156123a1576123a061222b565b5b60006123af84828501612376565b91505092915050565b60008115159050919050565b6123cd816123b8565b82525050565b60006020820190506123e860008301846123c4565b92915050565b600080fd5b600080fd5b6000601f19601f8301169050919050565b7f4e487b7100000000000000000000000000000000000000000000000000000000600052604160045260246000fd5b612441826123f8565b810181811067ffffffffffffffff821117156124605761245f612409565b5b80604052505050565b6000612473612221565b905061247f8282612438565b919050565b600067ffffffffffffffff82111561249f5761249e612409565b5b6124a8826123f8565b9050602081019050919050565b82818337600083830152505050565b60006124d76124d284612484565b612469565b9050828152602081018484840111156124f3576124f26123f3565b5b6124fe8482856124b5565b509392505050565b600082601f83011261251b5761251a6123ee565b5b813561252b8482602086016124c4565b91505092915050565b60006020828403121561254a5761254961222b565b5b600082013567ffffffffffffffff81111561256857612567612230565b5b61257484828501612506565b91505092915050565b6000602082840312156125935761259261222b565b5b60006125a1848285016122b4565b91505092915050565b600081519050919050565b600082825260208201905092915050565b60005b838110156125e45780820151818401526020810190506125c9565b838111156125f3576000848401525b50505050565b6000612604826125aa565b61260e81856125b5565b935061261e8185602086016125c6565b612627816123f8565b840191505092915050565b6000602082019050818103600083015261264c81846125f9565b905092915050565b600067ffffffffffffffff82111561266f5761266e612409565b5b602082029050602081019050919050565b600080fd5b600061269861269384612654565b612469565b905080838252602082019050602084028301858111156126bb576126ba612680565b5b835b818110156126e457806126d088826122b4565b8452602084019350506020810190506126bd565b5050509392505050565b600082601f830112612703576127026123ee565b5b8135612713848260208601612685565b91505092915050565b600067ffffffffffffffff82111561273757612736612409565b5b612740826123f8565b9050602081019050919050565b600061276061275b8461271c565b612469565b90508281526020810184848401111561277c5761277b6123f3565b5b6127878482856124b5565b509392505050565b600082601f8301126127a4576127a36123ee565b5b81356127b484826020860161274d565b91505092915050565b600080600080600060a086880312156127d9576127d861222b565b5b60006127e78882890161227e565b95505060206127f88882890161227e565b945050604086013567ffffffffffffffff81111561281957612818612230565b5b612825888289016126ee565b935050606086013567ffffffffffffffff81111561284657612845612230565b5b612852888289016126ee565b925050608086013567ffffffffffffffff81111561287357612872612230565b5b61287f8882890161278f565b9150509295509295909350565b600067ffffffffffffffff8211156128a7576128a6612409565b5b602082029050602081019050919050565b60006128cb6128c68461288c565b612469565b905080838252602082019050602084028301858111156128ee576128ed612680565b5b835b818110156129175780612903888261227e565b8452602084019350506020810190506128f0565b5050509392505050565b600082601f830112612936576129356123ee565b5b81356129468482602086016128b8565b91505092915050565b600080604083850312156129665761296561222b565b5b600083013567ffffffffffffffff81111561298457612983612230565b5b61299085828601612921565b925050602083013567ffffffffffffffff8111156129b1576129b0612230565b5b6129bd858286016126ee565b9150509250929050565b600081519050919050565b600082825260208201905092915050565b6000819050602082019050919050565b6129fc81612293565b82525050565b6000612a0e83836129f3565b60208301905092915050565b6000602082019050919050565b6000612a32826129c7565b612a3c81856129d2565b9350612a47836129e3565b8060005b83811015612a78578151612a5f8882612a02565b9750612a6a83612a1a565b925050600181019050612a4b565b5085935050505092915050565b60006020820190508181036000830152612a9f8184612a27565b905092915050565b600080fd5b60008083601f840112612ac257612ac16123ee565b5b8235905067ffffffffffffffff811115612adf57612ade612aa7565b5b602083019150836001820283011115612afb57612afa612680565b5b9250929050565b6000819050919050565b612b1581612b02565b8114612b2057600080fd5b50565b600081359050612b3281612b0c565b92915050565b600060ff82169050919050565b612b4e81612b38565b8114612b5957600080fd5b50565b600081359050612b6b81612b45565b92915050565b60008060008060008060a08789031215612b8e57612b8d61222b565b5b600087013567ffffffffffffffff811115612bac57612bab612230565b5b612bb889828a01612aac565b96509650506020612bcb89828a01612b23565b9450506040612bdc89828a01612b5c565b9350506060612bed89828a01612b23565b9250506080612bfe89828a01612b23565b9150509295509295509295565b600080600060608486031215612c2457612c2361222b565b5b6000612c328682870161227e565b935050602084013567ffffffffffffffff811115612c5357612c52612230565b5b612c5f868287016126ee565b925050604084013567ffffffffffffffff811115612c8057612c7f612230565b5b612c8c868287016126ee565b9150509250925092565b612c9f81612255565b82525050565b6000602082019050612cba6000830184612c96565b92915050565b612cc9816123b8565b8114612cd457600080fd5b50565b600081359050612ce681612cc0565b92915050565b60008060408385031215612d0357612d0261222b565b5b6000612d118582860161227e565b9250506020612d2285828601612cd7565b9150509250929050565b60008060408385031215612d4357612d4261222b565b5b6000612d518582860161227e565b9250506020612d628582860161227e565b9150509250929050565b600080600080600060a08688031215612d8857612d8761222b565b5b6000612d968882890161227e565b9550506020612da78882890161227e565b9450506040612db8888289016122b4565b9350506060612dc9888289016122b4565b925050608086013567ffffffffffffffff811115612dea57612de9612230565b5b612df68882890161278f565b9150509295509295909350565b600060208284031215612e1957612e1861222b565b5b6000612e278482850161227e565b91505092915050565b600080600060608486031215612e4957612e4861222b565b5b6000612e578682870161227e565b9350506020612e68868287016122b4565b9250506040612e79868287016122b4565b9150509250925092565b7f455243313135353a2062616c616e636520717565727920666f7220746865207a60008201527f65726f2061646472657373000000000000000000000000000000000000000000602082015250565b6000612edf602b836125b5565b9150612eea82612e83565b604082019050919050565b60006020820190508181036000830152612f0e81612ed2565b9050919050565b7f4f776e61626c653a2063616c6c6572206973206e6f7420746865206f776e6572600082015250565b6000612f4b6020836125b5565b9150612f5682612f15565b602082019050919050565b60006020820190508181036000830152612f7a81612f3e565b9050919050565b7f4e487b7100000000000000000000000000000000000000000000000000000000600052602260045260246000fd5b60006002820490506001821680612fc857607f821691505b60208210811415612fdc57612fdb612f81565b5b50919050565b7f455243313135353a207472616e736665722063616c6c6572206973206e6f742060008201527f6f776e6572206e6f7220617070726f7665640000000000000000000000000000602082015250565b600061303e6032836125b5565b915061304982612fe2565b604082019050919050565b6000602082019050818103600083015261306d81613031565b9050919050565b7f455243313135353a206163636f756e747320616e6420696473206c656e67746860008201527f206d69736d617463680000000000000000000000000000000000000000000000602082015250565b60006130d06029836125b5565b91506130db82613074565b604082019050919050565b600060208201905081810360008301526130ff816130c3565b9050919050565b7f4e487b7100000000000000000000000000000000000000000000000000000000600052603260045260246000fd5b7f4e487b7100000000000000000000000000000000000000000000000000000000600052601160045260246000fd5b600061316f82612293565b91507fffffffffffffffffffffffffffffffffffffffffffffffffffffffffffffffff8214156131a2576131a1613135565b5b600182019050919050565b7f536f756c426f756e64546f6b656e3a20496e76616c6964207369676e6174757260008201527f6500000000000000000000000000000000000000000000000000000000000000602082015250565b60006132096021836125b5565b9150613214826131ad565b604082019050919050565b60006020820190508181036000830152613238816131fc565b9050919050565b600061324a82612235565b9050919050565b61325a8161323f565b811461326557600080fd5b50565b60008135905061327781613251565b92915050565b600080604083850312156132945761329361222b565b5b60006132a2858286016122b4565b92505060206132b385828601613268565b9150509250929050565b7f455243313135353a2063616c6c6572206973206e6f74206f776e6572206e6f7260008201527f20617070726f7665640000000000000000000000000000000000000000000000602082015250565b60006133196029836125b5565b9150613324826132bd565b604082019050919050565b600060208201905081810360008301526133488161330c565b9050919050565b600081905092915050565b6000613366838561334f565b93506133738385846124b5565b82840190509392505050565b600061338c82848661335a565b91508190509392505050565b7f536f756c426f756e64546f6b656e3a20696e76616c696420686173682070726f60008201527f7669646564000000000000000000000000000000000000000000000000000000602082015250565b60006133f46025836125b5565b91506133ff82613398565b604082019050919050565b60006020820190508181036000830152613423816133e7565b9050919050565b600081905092915050565b7f19457468657265756d205369676e6564204d6573736167653a0a333200000000600082015250565b600061346b601c8361342a565b915061347682613435565b601c82019050919050565b6000819050919050565b61349c61349782612b02565b613481565b82525050565b60006134ad8261345e565b91506134b9828461348b565b60208201915081905092915050565b6134d181612b02565b82525050565b6134e081612b38565b82525050565b60006080820190506134fb60008301876134c8565b61350860208301866134d7565b61351560408301856134c8565b61352260608301846134c8565b95945050505050565b7f4f776e61626c653a206e6577206f776e657220697320746865207a65726f206160008201527f6464726573730000000000000000000000000000000000000000000000000000602082015250565b60006135876026836125b5565b91506135928261352b565b604082019050919050565b600060208201905081810360008301526135b68161357a565b9050919050565b7f455243313135353a2069647320616e6420616d6f756e7473206c656e6774682060008201527f6d69736d61746368000000000000000000000000000000000000000000000000602082015250565b60006136196028836125b5565b9150613624826135bd565b604082019050919050565b600060208201905081810360008301526136488161360c565b9050919050565b7f455243313135353a207472616e7366657220746f20746865207a65726f20616460008201527f6472657373000000000000000000000000000000000000000000000000000000602082015250565b60006136ab6025836125b5565b91506136b68261364f565b604082019050919050565b600060208201905081810360008301526136da8161369e565b9050919050565b7f455243313135353a20696e73756666696369656e742062616c616e636520666f60008201527f72207472616e7366657200000000000000000000000000000000000000000000602082015250565b600061373d602a836125b5565b9150613748826136e1565b604082019050919050565b6000602082019050818103600083015261376c81613730565b9050919050565b600061377e82612293565b915061378983612293565b9250827fffffffffffffffffffffffffffffffffffffffffffffffffffffffffffffffff038211156137be576137bd613135565b5b828201905092915050565b600060408201905081810360008301526137e38185612a27565b905081810360208301526137f78184612a27565b90509392505050565b7f455243313135353a206d696e7420746f20746865207a65726f2061646472657360008201527f7300000000000000000000000000000000000000000000000000000000000000602082015250565b600061385c6021836125b5565b915061386782613800565b604082019050919050565b6000602082019050818103600083015261388b8161384f565b9050919050565b60006040820190506138a76000830185612309565b6138b46020830184612309565b9392505050565b7f455243313135353a206275726e2066726f6d20746865207a65726f206164647260008201527f6573730000000000000000000000000000000000000000000000000000000000602082015250565b60006139176023836125b5565b9150613922826138bb565b604082019050919050565b600060208201905081810360008301526139468161390a565b9050919050565b7f455243313135353a206275726e20616d6f756e7420657863656564732062616c60008201527f616e636500000000000000000000000000000000000000000000000000000000602082015250565b60006139a96024836125b5565b91506139b48261394d565b604082019050919050565b600060208201905081810360008301526139d88161399c565b9050919050565b7f455243313135353a2073657474696e6720617070726f76616c2073746174757360008201527f20666f722073656c660000000000000000000000000000000000000000000000602082015250565b6000613a3b6029836125b5565b9150613a46826139df565b604082019050919050565b60006020820190508181036000830152613a6a81613a2e565b9050919050565b600081519050919050565b600082825260208201905092915050565b6000613a9882613a71565b613aa28185613a7c565b9350613ab28185602086016125c6565b613abb816123f8565b840191505092915050565b600060a082019050613adb6000830188612c96565b613ae86020830187612c96565b8181036040830152613afa8186612a27565b90508181036060830152613b0e8185612a27565b90508181036080830152613b228184613a8d565b90509695505050505050565b600081519050613b3d8161235f565b92915050565b600060208284031215613b5957613b5861222b565b5b6000613b6784828501613b2e565b91505092915050565b60008160e01c9050919050565b600060033d1115613b9c5760046000803e613b99600051613b70565b90505b90565b600060443d1015613baf57613c32565b613bb7612221565b60043d036004823e80513d602482011167ffffffffffffffff82111715613bdf575050613c32565b808201805167ffffffffffffffff811115613bfd5750505050613c32565b80602083010160043d038501811115613c1a575050505050613c32565b613c2982602001850186612438565b82955050505050505b90565b7f455243313135353a207472616e7366657220746f206e6f6e204552433131353560008201527f526563656976657220696d706c656d656e746572000000000000000000000000602082015250565b6000613c916034836125b5565b9150613c9c82613c35565b604082019050919050565b60006020820190508181036000830152613cc081613c84565b9050919050565b7f455243313135353a204552433131353552656365697665722072656a6563746560008201527f6420746f6b656e73000000000000000000000000000000000000000000000000602082015250565b6000613d236028836125b5565b9150613d2e82613cc7565b604082019050919050565b60006020820190508181036000830152613d5281613d16565b9050919050565b600060a082019050613d6e6000830188612c96565b613d7b6020830187612c96565b613d886040830186612309565b613d956060830185612309565b8181036080830152613da78184613a8d565b9050969550505050505056fea264697066735822122068eac1d6d4a806959db144c9f6f2a217e89064acd30f5f3e8e395f726ccc24fb64736f6c634300080b0033",
  "linkReferences": {},
  "deployedLinkReferences": {}
}